{
  "address": "0xEE3BD6A9755b11B79b9C2ceE75Db0979f01CDCb9",
  "abi": [
    {
      "anonymous": false,
      "inputs": [
        {
          "indexed": true,
          "internalType": "address",
          "name": "owner",
          "type": "address"
        },
        {
          "indexed": true,
          "internalType": "address",
          "name": "spender",
          "type": "address"
        },
        {
          "indexed": false,
          "internalType": "uint256",
          "name": "value",
          "type": "uint256"
        }
      ],
      "name": "Approval",
      "type": "event"
    },
    {
      "anonymous": false,
      "inputs": [
        {
          "indexed": true,
          "internalType": "address",
          "name": "owner",
          "type": "address"
        },
        {
          "indexed": false,
          "internalType": "uint256",
          "name": "amount",
          "type": "uint256"
        }
      ],
      "name": "Deposit",
      "type": "event"
    },
    {
      "anonymous": false,
      "inputs": [
        {
          "indexed": false,
          "internalType": "uint8",
          "name": "version",
          "type": "uint8"
        }
      ],
      "name": "Initialized",
      "type": "event"
    },
    {
      "anonymous": false,
      "inputs": [
        {
          "indexed": true,
          "internalType": "address",
          "name": "previousOwner",
          "type": "address"
        },
        {
          "indexed": true,
          "internalType": "address",
          "name": "newOwner",
          "type": "address"
        }
      ],
      "name": "OwnershipTransferred",
      "type": "event"
    },
    {
      "anonymous": false,
      "inputs": [
        {
          "indexed": false,
          "internalType": "address",
          "name": "account",
          "type": "address"
        }
      ],
      "name": "Paused",
      "type": "event"
    },
    {
      "anonymous": false,
      "inputs": [
        {
          "indexed": true,
          "internalType": "address",
          "name": "owner",
          "type": "address"
        },
        {
          "indexed": false,
          "internalType": "uint256",
          "name": "amount",
          "type": "uint256"
        },
        {
          "indexed": false,
          "internalType": "uint256",
          "name": "requestId",
          "type": "uint256"
        }
      ],
      "name": "RequestWithdrawal",
      "type": "event"
    },
    {
      "anonymous": false,
      "inputs": [
        {
          "indexed": true,
          "internalType": "address",
          "name": "from",
          "type": "address"
        },
        {
          "indexed": true,
          "internalType": "address",
          "name": "to",
          "type": "address"
        },
        {
          "indexed": false,
          "internalType": "uint256",
          "name": "value",
          "type": "uint256"
        }
      ],
      "name": "Transfer",
      "type": "event"
    },
    {
      "anonymous": false,
      "inputs": [
        {
          "indexed": false,
          "internalType": "address",
          "name": "account",
          "type": "address"
        }
      ],
      "name": "Unpaused",
      "type": "event"
    },
    {
      "anonymous": false,
      "inputs": [
        {
          "indexed": false,
          "internalType": "uint256",
          "name": "period",
          "type": "uint256"
        }
      ],
      "name": "UpdateCooldownPeriod",
      "type": "event"
    },
    {
      "anonymous": false,
      "inputs": [
        {
          "indexed": true,
          "internalType": "address",
          "name": "owner",
          "type": "address"
        },
        {
          "indexed": false,
          "internalType": "uint256",
          "name": "amount",
          "type": "uint256"
        },
        {
          "indexed": false,
          "internalType": "uint256",
          "name": "requestId",
          "type": "uint256"
        }
      ],
      "name": "Withdraw",
      "type": "event"
    },
    {
      "inputs": [
        {
          "internalType": "address",
          "name": "",
          "type": "address"
        }
      ],
      "name": "_withdrawalRequestCounts",
      "outputs": [
        {
          "internalType": "uint256",
          "name": "",
          "type": "uint256"
        }
      ],
      "stateMutability": "view",
      "type": "function"
    },
    {
      "inputs": [
        {
          "internalType": "uint256",
          "name": "",
          "type": "uint256"
        }
      ],
      "name": "_withdrawalRequests",
      "outputs": [
        {
          "internalType": "uint256",
          "name": "id",
          "type": "uint256"
        },
        {
          "internalType": "uint256",
          "name": "amount",
          "type": "uint256"
        },
        {
          "internalType": "uint256",
          "name": "requestTs",
          "type": "uint256"
        },
        {
          "internalType": "bool",
          "name": "isClaimed",
          "type": "bool"
        }
      ],
      "stateMutability": "view",
      "type": "function"
    },
    {
      "inputs": [
        {
          "internalType": "address",
          "name": "owner",
          "type": "address"
        },
        {
          "internalType": "address",
          "name": "spender",
          "type": "address"
        }
      ],
      "name": "allowance",
      "outputs": [
        {
          "internalType": "uint256",
          "name": "",
          "type": "uint256"
        }
      ],
      "stateMutability": "view",
      "type": "function"
    },
    {
      "inputs": [
        {
          "internalType": "address",
          "name": "spender",
          "type": "address"
        },
        {
          "internalType": "uint256",
          "name": "amount",
          "type": "uint256"
        }
      ],
      "name": "approve",
      "outputs": [
        {
          "internalType": "bool",
          "name": "",
          "type": "bool"
        }
      ],
      "stateMutability": "nonpayable",
      "type": "function"
    },
    {
      "inputs": [
        {
          "internalType": "address",
          "name": "account",
          "type": "address"
        }
      ],
      "name": "balanceOf",
      "outputs": [
        {
          "internalType": "uint256",
          "name": "",
          "type": "uint256"
        }
      ],
      "stateMutability": "view",
      "type": "function"
    },
    {
      "inputs": [],
      "name": "cooldownPeriod",
      "outputs": [
        {
          "internalType": "uint256",
          "name": "",
          "type": "uint256"
        }
      ],
      "stateMutability": "view",
      "type": "function"
    },
    {
      "inputs": [],
      "name": "decimals",
      "outputs": [
        {
          "internalType": "uint8",
          "name": "",
          "type": "uint8"
        }
      ],
      "stateMutability": "view",
      "type": "function"
    },
    {
      "inputs": [
        {
          "internalType": "address",
          "name": "spender",
          "type": "address"
        },
        {
          "internalType": "uint256",
          "name": "subtractedValue",
          "type": "uint256"
        }
      ],
      "name": "decreaseAllowance",
      "outputs": [
        {
          "internalType": "bool",
          "name": "",
          "type": "bool"
        }
      ],
      "stateMutability": "nonpayable",
      "type": "function"
    },
    {
      "inputs": [
        {
          "internalType": "uint256",
          "name": "amount",
          "type": "uint256"
        }
      ],
      "name": "deposit",
      "outputs": [],
      "stateMutability": "nonpayable",
      "type": "function"
    },
    {
      "inputs": [
        {
          "internalType": "address",
          "name": "spender",
          "type": "address"
        },
        {
          "internalType": "uint256",
          "name": "addedValue",
          "type": "uint256"
        }
      ],
      "name": "increaseAllowance",
      "outputs": [
        {
          "internalType": "bool",
          "name": "",
          "type": "bool"
        }
      ],
      "stateMutability": "nonpayable",
      "type": "function"
    },
    {
      "inputs": [
        {
          "internalType": "address",
          "name": "_token",
          "type": "address"
        }
      ],
      "name": "initialize",
      "outputs": [],
      "stateMutability": "nonpayable",
      "type": "function"
    },
    {
      "inputs": [],
      "name": "name",
      "outputs": [
        {
          "internalType": "string",
          "name": "",
          "type": "string"
        }
      ],
      "stateMutability": "view",
      "type": "function"
    },
    {
      "inputs": [],
      "name": "owner",
      "outputs": [
        {
          "internalType": "address",
          "name": "",
          "type": "address"
        }
      ],
      "stateMutability": "view",
      "type": "function"
    },
    {
      "inputs": [],
      "name": "pause",
      "outputs": [],
      "stateMutability": "nonpayable",
      "type": "function"
    },
    {
      "inputs": [],
      "name": "paused",
      "outputs": [
        {
          "internalType": "bool",
          "name": "",
          "type": "bool"
        }
      ],
      "stateMutability": "view",
      "type": "function"
    },
    {
      "inputs": [],
      "name": "renounceOwnership",
      "outputs": [],
      "stateMutability": "nonpayable",
      "type": "function"
    },
    {
      "inputs": [
        {
          "internalType": "uint256",
          "name": "",
          "type": "uint256"
        }
      ],
      "name": "requestOwnerOf",
      "outputs": [
        {
          "internalType": "address",
          "name": "",
          "type": "address"
        }
      ],
      "stateMutability": "view",
      "type": "function"
    },
    {
      "inputs": [
        {
          "internalType": "uint256",
          "name": "amount",
          "type": "uint256"
        }
      ],
      "name": "requestWithdrawal",
      "outputs": [
        {
          "internalType": "uint256",
          "name": "requestId",
          "type": "uint256"
        }
      ],
      "stateMutability": "nonpayable",
      "type": "function"
    },
    {
      "inputs": [
        {
          "internalType": "uint256",
          "name": "period",
          "type": "uint256"
        }
      ],
      "name": "setCooldownPeriod",
      "outputs": [],
      "stateMutability": "nonpayable",
      "type": "function"
    },
    {
      "inputs": [],
      "name": "symbol",
      "outputs": [
        {
          "internalType": "string",
          "name": "",
          "type": "string"
        }
      ],
      "stateMutability": "view",
      "type": "function"
    },
    {
      "inputs": [],
      "name": "token",
      "outputs": [
        {
          "internalType": "address",
          "name": "",
          "type": "address"
        }
      ],
      "stateMutability": "view",
      "type": "function"
    },
    {
      "inputs": [],
      "name": "totalSupply",
      "outputs": [
        {
          "internalType": "uint256",
          "name": "",
          "type": "uint256"
        }
      ],
      "stateMutability": "view",
      "type": "function"
    },
    {
      "inputs": [
        {
          "internalType": "address",
          "name": "to",
          "type": "address"
        },
        {
          "internalType": "uint256",
          "name": "amount",
          "type": "uint256"
        }
      ],
      "name": "transfer",
      "outputs": [
        {
          "internalType": "bool",
          "name": "",
          "type": "bool"
        }
      ],
      "stateMutability": "nonpayable",
      "type": "function"
    },
    {
      "inputs": [
        {
          "internalType": "address",
          "name": "from",
          "type": "address"
        },
        {
          "internalType": "address",
          "name": "to",
          "type": "address"
        },
        {
          "internalType": "uint256",
          "name": "amount",
          "type": "uint256"
        }
      ],
      "name": "transferFrom",
      "outputs": [
        {
          "internalType": "bool",
          "name": "",
          "type": "bool"
        }
      ],
      "stateMutability": "nonpayable",
      "type": "function"
    },
    {
      "inputs": [
        {
          "internalType": "address",
          "name": "newOwner",
          "type": "address"
        }
      ],
      "name": "transferOwnership",
      "outputs": [],
      "stateMutability": "nonpayable",
      "type": "function"
    },
    {
      "inputs": [],
      "name": "unpause",
      "outputs": [],
      "stateMutability": "nonpayable",
      "type": "function"
    },
    {
      "inputs": [
        {
          "internalType": "uint256",
          "name": "requestId",
          "type": "uint256"
        }
      ],
      "name": "withdraw",
      "outputs": [
        {
          "internalType": "uint256",
          "name": "amount",
          "type": "uint256"
        }
      ],
      "stateMutability": "nonpayable",
      "type": "function"
    },
    {
      "inputs": [
        {
          "internalType": "address",
          "name": "owner",
          "type": "address"
        },
        {
          "internalType": "uint256",
          "name": "index",
          "type": "uint256"
        }
      ],
      "name": "withdrawalRequestByIndex",
      "outputs": [
        {
          "components": [
            {
              "internalType": "uint256",
              "name": "id",
              "type": "uint256"
            },
            {
              "internalType": "uint256",
              "name": "amount",
              "type": "uint256"
            },
            {
              "internalType": "uint256",
              "name": "requestTs",
              "type": "uint256"
            },
            {
              "internalType": "bool",
              "name": "isClaimed",
              "type": "bool"
            }
          ],
          "internalType": "struct IDeferredTokenStruct.WithdrawalRequest",
          "name": "",
          "type": "tuple"
        }
      ],
      "stateMutability": "view",
      "type": "function"
    },
    {
      "inputs": [
        {
          "internalType": "address",
          "name": "owner",
          "type": "address"
        }
      ],
      "name": "withdrawalRequestCounts",
      "outputs": [
        {
          "internalType": "uint256",
          "name": "",
          "type": "uint256"
        }
      ],
      "stateMutability": "view",
      "type": "function"
    },
    {
      "inputs": [
        {
          "internalType": "uint256",
          "name": "requestId",
          "type": "uint256"
        }
      ],
      "name": "withdrawalRequests",
      "outputs": [
        {
          "components": [
            {
              "internalType": "uint256",
              "name": "id",
              "type": "uint256"
            },
            {
              "internalType": "uint256",
              "name": "amount",
              "type": "uint256"
            },
            {
              "internalType": "uint256",
              "name": "requestTs",
              "type": "uint256"
            },
            {
              "internalType": "bool",
              "name": "isClaimed",
              "type": "bool"
            }
          ],
          "internalType": "struct IDeferredTokenStruct.WithdrawalRequest",
          "name": "",
          "type": "tuple"
        }
      ],
      "stateMutability": "view",
      "type": "function"
    }
  ],
  "transactionHash": "0x5ad8a758eaec5ca7ca29455dc9b11ed374c2b0540d3a764f7238e1e26fcee3c8",
  "args": [],
  "numDeployments": 1,
  "solcInputHash": "75d88203dc44dd6815ce86a1a91eb734",
  "bytecode": "0x608060405234801561001057600080fd5b50612e44806100206000396000f3fe608060405234801561001057600080fd5b50600436106101da5760003560e01c80638456cb5911610104578063a9059cbb116100a2578063dd62ed3e11610071578063dd62ed3e1461049e578063e2bb8b25146104e4578063f2fde38b14610504578063fc0c546a1461051757600080fd5b8063a9059cbb1461042f578063b6b55f2514610442578063c4d66de814610455578063cc5c1e081461046857600080fd5b806395d89b41116100de57806395d89b41146103cc5780639ee679e8146103d4578063a3ca7b31146103e7578063a457c2d71461041c57600080fd5b80638456cb59146103725780638da5cb5b1461037a578063937b2581146103b957600080fd5b8063395093511161017c5780636e323a921161014b5780636e323a92146102d957806370a0823114610321578063715018a61461035757806380ea3de11461035f57600080fd5b8063395093511461027b5780633f4ba83a1461028e5780634def2dbe146102985780635c975abb146102ce57600080fd5b806318160ddd116101b857806318160ddd1461023357806323b872dd1461023b5780632e1a7d4d1461024e578063313ce5671461026157600080fd5b806304646a49146101df57806306fdde03146101fb578063095ea7b314610210575b600080fd5b6101e860fc5481565b6040519081526020015b60405180910390f35b610203610537565b6040516101f291906129ae565b61022361021e366004612a28565b6105c9565b60405190151581526020016101f2565b6035546101e8565b610223610249366004612a52565b6105e1565b6101e861025c366004612a8e565b610605565b610269610858565b60405160ff90911681526020016101f2565b610223610289366004612a28565b610900565b61029661094c565b005b6101e86102a6366004612aa7565b73ffffffffffffffffffffffffffffffffffffffff16600090815260fe602052604090205490565b60655460ff16610223565b6102ec6102e7366004612a28565b61095e565b6040516101f2919081518152602080830151908201526040808301519082015260609182015115159181019190915260800190565b6101e861032f366004612aa7565b73ffffffffffffffffffffffffffffffffffffffff1660009081526033602052604090205490565b610296610a20565b61029661036d366004612a8e565b610a32565b610296610a75565b60c95473ffffffffffffffffffffffffffffffffffffffff165b60405173ffffffffffffffffffffffffffffffffffffffff90911681526020016101f2565b6102ec6103c7366004612a8e565b610a85565b610203610b11565b6101e86103e2366004612a8e565b610b20565b6103fa6103f5366004612a8e565b610c64565b60408051948552602085019390935291830152151560608201526080016101f2565b61022361042a366004612a28565b610ca1565b61022361043d366004612a28565b610d72565b610296610450366004612a8e565b610d80565b610296610463366004612aa7565b610e59565b610394610476366004612a8e565b60ff6020526000908152604090205473ffffffffffffffffffffffffffffffffffffffff1681565b6101e86104ac366004612ac9565b73ffffffffffffffffffffffffffffffffffffffff918216600090815260346020908152604080832093909416825291909152205490565b6101e86104f2366004612aa7565b60fe6020526000908152604090205481565b610296610512366004612aa7565b6111e1565b60fb546103949073ffffffffffffffffffffffffffffffffffffffff1681565b60606036805461054690612afc565b80601f016020809104026020016040519081016040528092919081815260200182805461057290612afc565b80156105bf5780601f10610594576101008083540402835291602001916105bf565b820191906000526020600020905b8154815290600101906020018083116105a257829003601f168201915b5050505050905090565b6000336105d7818585611298565b5060019392505050565b6000336105ef85828561144b565b6105fa858585611522565b506001949350505050565b600061060f6117a3565b600060fd838154811061062457610624612b50565b60009182526020918290206040805160808101825260049093029091018054835260018101549383019390935260028301549082015260039091015460ff1615801560608301529091506106d9576040517f08c379a000000000000000000000000000000000000000000000000000000000815260206004820152600f60248201527f414c52454144595f434c41494d4544000000000000000000000000000000000060448201526064015b60405180910390fd5b600083815260ff602052604090205473ffffffffffffffffffffffffffffffffffffffff163314610766576040517f08c379a000000000000000000000000000000000000000000000000000000000815260206004820152600960248201527f4e4f545f4f574e4552000000000000000000000000000000000000000000000060448201526064016106d0565b4260fc5482604001516107799190612bae565b11156107e1576040517f08c379a000000000000000000000000000000000000000000000000000000000815260206004820152600d60248201527f4e4545445f434f4f4c444f574e0000000000000000000000000000000000000060448201526064016106d0565b602081015160fb5490925061080d9073ffffffffffffffffffffffffffffffffffffffff163384611810565b61081733846118e9565b604080518381526020810185905233917ff279e6a1f5e320cca91135676d9cb6e44ca8a08c0b88342bcdb1144f6511b568910160405180910390a250919050565b60fb54604080517f313ce567000000000000000000000000000000000000000000000000000000008152905160009273ffffffffffffffffffffffffffffffffffffffff169163313ce567916004808301926020929190829003018186803b1580156108c357600080fd5b505afa1580156108d7573d6000803e3d6000fd5b505050506040513d601f19601f820116820180604052508101906108fb9190612bc6565b905090565b33600081815260346020908152604080832073ffffffffffffffffffffffffffffffffffffffff871684529091528120549091906105d79082908690610947908790612bae565b611298565b610954611a21565b61095c611aa2565b565b61098b60405180608001604052806000815260200160008152602001600081526020016000151581525090565b73ffffffffffffffffffffffffffffffffffffffff831660009081526101006020908152604080832085845290915290205460fd8054829081106109d1576109d1612b50565b60009182526020918290206040805160808101825260049093029091018054835260018101549383019390935260028301549082015260039091015460ff161515606082015291505092915050565b610a28611a21565b61095c6000611b1f565b610a3a611a21565b60fc8190556040518181527f7a95db23be43e8d436d0b36032f3701bdf51d1d746bf6a62e55989bed3a9a5f99060200160405180910390a150565b610a7d611a21565b61095c611b96565b610ab260405180608001604052806000815260200160008152602001600081526020016000151581525090565b60fd8281548110610ac557610ac5612b50565b60009182526020918290206040805160808101825260049093029091018054835260018101549383019390935260028301549082015260039091015460ff161515606082015292915050565b60606037805461054690612afc565b6000610b2a6117a3565b60008211610b94576040517f08c379a000000000000000000000000000000000000000000000000000000000815260206004820152600860248201527f4e4f545f5a45524f00000000000000000000000000000000000000000000000060448201526064016106d0565b33600090815260336020526040902054821115610c0d576040517f08c379a000000000000000000000000000000000000000000000000000000000815260206004820152601460248201527f494e53554646494349454e545f42414c414e434500000000000000000000000060448201526064016106d0565b610c173383611bf1565b610c213383611dc3565b604080518481526020810183905291925033917fadf0d81321571e1d83f52cfa9faf7add412d39431677ee21583f0d8998a9c838910160405180910390a2919050565b60fd8181548110610c7457600080fd5b60009182526020909120600490910201805460018201546002830154600390930154919350919060ff1684565b33600081815260346020908152604080832073ffffffffffffffffffffffffffffffffffffffff8716845290915281205490919083811015610d65576040517f08c379a000000000000000000000000000000000000000000000000000000000815260206004820152602560248201527f45524332303a2064656372656173656420616c6c6f77616e63652062656c6f7760448201527f207a65726f00000000000000000000000000000000000000000000000000000060648201526084016106d0565b6105fa8286868403611298565b6000336105d7818585611522565b610d886117a3565b60008111610df2576040517f08c379a000000000000000000000000000000000000000000000000000000000815260206004820152600860248201527f4e4f545f5a45524f00000000000000000000000000000000000000000000000060448201526064016106d0565b60fb54610e179073ffffffffffffffffffffffffffffffffffffffff16333084611f75565b610e213382611fd3565b60405181815233907fe1fffcc4923d04b559f4d29a8bfc6cda04eb5b0d3c460751c2402c5c5cc9109c9060200160405180910390a250565b600054610100900460ff1615808015610e795750600054600160ff909116105b80610e935750303b158015610e93575060005460ff166001145b610f1f576040517f08c379a000000000000000000000000000000000000000000000000000000000815260206004820152602e60248201527f496e697469616c697a61626c653a20636f6e747261637420697320616c72656160448201527f647920696e697469616c697a656400000000000000000000000000000000000060648201526084016106d0565b600080547fffffffffffffffffffffffffffffffffffffffffffffffffffffffffffffff001660011790558015610f7d57600080547fffffffffffffffffffffffffffffffffffffffffffffffffffffffffffff00ff166101001790555b60fb80547fffffffffffffffffffffffff00000000000000000000000000000000000000001673ffffffffffffffffffffffffffffffffffffffff8416908117909155604080517f06fdde030000000000000000000000000000000000000000000000000000000081529051600092916306fdde039160048083019286929190829003018186803b15801561101157600080fd5b505afa158015611025573d6000803e3d6000fd5b505050506040513d6000823e601f3d9081017fffffffffffffffffffffffffffffffffffffffffffffffffffffffffffffffe016820160405261106b9190810190612c18565b905060008373ffffffffffffffffffffffffffffffffffffffff166395d89b416040518163ffffffff1660e01b815260040160006040518083038186803b1580156110b557600080fd5b505afa1580156110c9573d6000803e3d6000fd5b505050506040513d6000823e601f3d9081017fffffffffffffffffffffffffffffffffffffffffffffffffffffffffffffffe016820160405261110f9190810190612c18565b9050611159826040516020016111259190612cd8565b604051602081830303815290604052826040516020016111459190612d1d565b6040516020818303038152906040526120d4565b62093a8060fc55611168612175565b611170612175565b611178612214565b505080156111dd57600080547fffffffffffffffffffffffffffffffffffffffffffffffffffffffffffff00ff169055604051600181527f7f26b83ff96e1f2b6a682f133852f6798a09c465da95921460cefb38474024989060200160405180910390a15b5050565b6111e9611a21565b73ffffffffffffffffffffffffffffffffffffffff811661128c576040517f08c379a000000000000000000000000000000000000000000000000000000000815260206004820152602660248201527f4f776e61626c653a206e6577206f776e657220697320746865207a65726f206160448201527f646472657373000000000000000000000000000000000000000000000000000060648201526084016106d0565b61129581611b1f565b50565b73ffffffffffffffffffffffffffffffffffffffff831661133a576040517f08c379a0000000000000000000000000000000000000000000000000000000008152602060048201526024808201527f45524332303a20617070726f76652066726f6d20746865207a65726f2061646460448201527f726573730000000000000000000000000000000000000000000000000000000060648201526084016106d0565b73ffffffffffffffffffffffffffffffffffffffff82166113dd576040517f08c379a000000000000000000000000000000000000000000000000000000000815260206004820152602260248201527f45524332303a20617070726f766520746f20746865207a65726f20616464726560448201527f737300000000000000000000000000000000000000000000000000000000000060648201526084016106d0565b73ffffffffffffffffffffffffffffffffffffffff83811660008181526034602090815260408083209487168084529482529182902085905590518481527f8c5be1e5ebec7d5bd14f71427d1e84f3dd0314c0f7b2291e5b200ac8c7c3b925910160405180910390a3505050565b73ffffffffffffffffffffffffffffffffffffffff8381166000908152603460209081526040808320938616835292905220547fffffffffffffffffffffffffffffffffffffffffffffffffffffffffffffffff811461151c578181101561150f576040517f08c379a000000000000000000000000000000000000000000000000000000000815260206004820152601d60248201527f45524332303a20696e73756666696369656e7420616c6c6f77616e636500000060448201526064016106d0565b61151c8484848403611298565b50505050565b73ffffffffffffffffffffffffffffffffffffffff83166115c5576040517f08c379a000000000000000000000000000000000000000000000000000000000815260206004820152602560248201527f45524332303a207472616e736665722066726f6d20746865207a65726f20616460448201527f647265737300000000000000000000000000000000000000000000000000000060648201526084016106d0565b73ffffffffffffffffffffffffffffffffffffffff8216611668576040517f08c379a000000000000000000000000000000000000000000000000000000000815260206004820152602360248201527f45524332303a207472616e7366657220746f20746865207a65726f206164647260448201527f657373000000000000000000000000000000000000000000000000000000000060648201526084016106d0565b6116738383836122b3565b73ffffffffffffffffffffffffffffffffffffffff831660009081526033602052604090205481811015611729576040517f08c379a000000000000000000000000000000000000000000000000000000000815260206004820152602660248201527f45524332303a207472616e7366657220616d6f756e742065786365656473206260448201527f616c616e6365000000000000000000000000000000000000000000000000000060648201526084016106d0565b73ffffffffffffffffffffffffffffffffffffffff80851660008181526033602052604080822086860390559286168082529083902080548601905591517fddf252ad1be2c89b69c2b068fc378daa952ba7f163c4a11628f55a4df523b3ef906117969086815260200190565b60405180910390a361151c565b60655460ff161561095c576040517f08c379a000000000000000000000000000000000000000000000000000000000815260206004820152601060248201527f5061757361626c653a207061757365640000000000000000000000000000000060448201526064016106d0565b60405173ffffffffffffffffffffffffffffffffffffffff83166024820152604481018290526118e49084907fa9059cbb00000000000000000000000000000000000000000000000000000000906064015b604080517fffffffffffffffffffffffffffffffffffffffffffffffffffffffffffffffe08184030181529190526020810180517bffffffffffffffffffffffffffffffffffffffffffffffffffffffff167fffffffff0000000000000000000000000000000000000000000000000000000090931692909217909152612346565b505050565b600160fd82815481106118fe576118fe612b50565b6000918252602080832060049290920290910160030180547fffffffffffffffffffffffffffffffffffffffffffffffffffffffffffffff00169315159390931790925573ffffffffffffffffffffffffffffffffffffffff8416815260fe909152604081208054829061197190612d62565b9182905550600083815261010160205260409020549091508082146119d95773ffffffffffffffffffffffffffffffffffffffff8416600090815261010060209081526040808320858452825280832054848452818420819055835261010190915290208190555b60009081526101016020908152604080832083905573ffffffffffffffffffffffffffffffffffffffff90951682526101008152848220928252919091529182209190915550565b60c95473ffffffffffffffffffffffffffffffffffffffff16331461095c576040517f08c379a000000000000000000000000000000000000000000000000000000000815260206004820181905260248201527f4f776e61626c653a2063616c6c6572206973206e6f7420746865206f776e657260448201526064016106d0565b611aaa612452565b606580547fffffffffffffffffffffffffffffffffffffffffffffffffffffffffffffff001690557f5db9ee0a495bf2e6ff9c91a7834c1ba4fdd244a5e8aa4e537bd38aeae4b073aa335b60405173ffffffffffffffffffffffffffffffffffffffff909116815260200160405180910390a1565b60c9805473ffffffffffffffffffffffffffffffffffffffff8381167fffffffffffffffffffffffff0000000000000000000000000000000000000000831681179093556040519116919082907f8be0079c531659141344cd1fd0a4f28419497f9722a3daafe3b4186f6b6457e090600090a35050565b611b9e6117a3565b606580547fffffffffffffffffffffffffffffffffffffffffffffffffffffffffffffff001660011790557f62e78cea01bee320cd4e420270b5ea74000d11b0c9f74754ebdbfc544b05a258611af53390565b73ffffffffffffffffffffffffffffffffffffffff8216611c94576040517f08c379a000000000000000000000000000000000000000000000000000000000815260206004820152602160248201527f45524332303a206275726e2066726f6d20746865207a65726f2061646472657360448201527f730000000000000000000000000000000000000000000000000000000000000060648201526084016106d0565b611ca0826000836122b3565b73ffffffffffffffffffffffffffffffffffffffff821660009081526033602052604090205481811015611d56576040517f08c379a000000000000000000000000000000000000000000000000000000000815260206004820152602260248201527f45524332303a206275726e20616d6f756e7420657863656564732062616c616e60448201527f636500000000000000000000000000000000000000000000000000000000000060648201526084016106d0565b73ffffffffffffffffffffffffffffffffffffffff831660008181526033602090815260408083208686039055603580548790039055518581529192917fddf252ad1be2c89b69c2b068fc378daa952ba7f163c4a11628f55a4df523b3ef910160405180910390a3505050565b60fd80546040805160808101825282815260208082018681524283850190815260006060850181815260018801895597815293517f9346ac6dd7de6b96975fec380d4d994c4c12e6a8897544f22915316cc6cca280600488029081019190915591517f9346ac6dd7de6b96975fec380d4d994c4c12e6a8897544f22915316cc6cca281830155517f9346ac6dd7de6b96975fec380d4d994c4c12e6a8897544f22915316cc6cca28282015594517f9346ac6dd7de6b96975fec380d4d994c4c12e6a8897544f22915316cc6cca28390950180547fffffffffffffffffffffffffffffffffffffffffffffffffffffffffffffff00169515159590951790945573ffffffffffffffffffffffffffffffffffffffff8616815260fe909352822080549192919082611ef283612d97565b90915550600083815260ff60209081526040808320805473ffffffffffffffffffffffffffffffffffffffff9099167fffffffffffffffffffffffff000000000000000000000000000000000000000090991689179055968252610100815286822083835281528682208590558482526101019052949094209390935592915050565b60405173ffffffffffffffffffffffffffffffffffffffff8085166024830152831660448201526064810182905261151c9085907f23b872dd0000000000000000000000000000000000000000000000000000000090608401611862565b73ffffffffffffffffffffffffffffffffffffffff8216612050576040517f08c379a000000000000000000000000000000000000000000000000000000000815260206004820152601f60248201527f45524332303a206d696e7420746f20746865207a65726f20616464726573730060448201526064016106d0565b61205c600083836122b3565b806035600082825461206e9190612bae565b909155505073ffffffffffffffffffffffffffffffffffffffff82166000818152603360209081526040808320805486019055518481527fddf252ad1be2c89b69c2b068fc378daa952ba7f163c4a11628f55a4df523b3ef910160405180910390a35050565b600054610100900460ff1661216b576040517f08c379a000000000000000000000000000000000000000000000000000000000815260206004820152602b60248201527f496e697469616c697a61626c653a20636f6e7472616374206973206e6f74206960448201527f6e697469616c697a696e6700000000000000000000000000000000000000000060648201526084016106d0565b6111dd82826124be565b600054610100900460ff1661220c576040517f08c379a000000000000000000000000000000000000000000000000000000000815260206004820152602b60248201527f496e697469616c697a61626c653a20636f6e7472616374206973206e6f74206960448201527f6e697469616c697a696e6700000000000000000000000000000000000000000060648201526084016106d0565b61095c61257c565b600054610100900460ff166122ab576040517f08c379a000000000000000000000000000000000000000000000000000000000815260206004820152602b60248201527f496e697469616c697a61626c653a20636f6e7472616374206973206e6f74206960448201527f6e697469616c697a696e6700000000000000000000000000000000000000000060648201526084016106d0565b61095c61263d565b60655460ff16156118e4576040517f08c379a000000000000000000000000000000000000000000000000000000000815260206004820152602a60248201527f45524332305061757361626c653a20746f6b656e207472616e7366657220776860448201527f696c65207061757365640000000000000000000000000000000000000000000060648201526084016106d0565b60006123a8826040518060400160405280602081526020017f5361666545524332303a206c6f772d6c6576656c2063616c6c206661696c65648152508573ffffffffffffffffffffffffffffffffffffffff166126dd9092919063ffffffff16565b8051909150156118e457808060200190518101906123c69190612dd0565b6118e4576040517f08c379a000000000000000000000000000000000000000000000000000000000815260206004820152602a60248201527f5361666545524332303a204552433230206f7065726174696f6e20646964206e60448201527f6f7420737563636565640000000000000000000000000000000000000000000060648201526084016106d0565b60655460ff1661095c576040517f08c379a000000000000000000000000000000000000000000000000000000000815260206004820152601460248201527f5061757361626c653a206e6f742070617573656400000000000000000000000060448201526064016106d0565b600054610100900460ff16612555576040517f08c379a000000000000000000000000000000000000000000000000000000000815260206004820152602b60248201527f496e697469616c697a61626c653a20636f6e7472616374206973206e6f74206960448201527f6e697469616c697a696e6700000000000000000000000000000000000000000060648201526084016106d0565b81516125689060369060208501906128e9565b5080516118e49060379060208401906128e9565b600054610100900460ff16612613576040517f08c379a000000000000000000000000000000000000000000000000000000000815260206004820152602b60248201527f496e697469616c697a61626c653a20636f6e7472616374206973206e6f74206960448201527f6e697469616c697a696e6700000000000000000000000000000000000000000060648201526084016106d0565b606580547fffffffffffffffffffffffffffffffffffffffffffffffffffffffffffffff00169055565b600054610100900460ff166126d4576040517f08c379a000000000000000000000000000000000000000000000000000000000815260206004820152602b60248201527f496e697469616c697a61626c653a20636f6e7472616374206973206e6f74206960448201527f6e697469616c697a696e6700000000000000000000000000000000000000000060648201526084016106d0565b61095c33611b1f565b60606126ec84846000856126f4565b949350505050565b606082471015612786576040517f08c379a000000000000000000000000000000000000000000000000000000000815260206004820152602660248201527f416464726573733a20696e73756666696369656e742062616c616e636520666f60448201527f722063616c6c000000000000000000000000000000000000000000000000000060648201526084016106d0565b6000808673ffffffffffffffffffffffffffffffffffffffff1685876040516127af9190612df2565b60006040518083038185875af1925050503d80600081146127ec576040519150601f19603f3d011682016040523d82523d6000602084013e6127f1565b606091505b50915091506128028783838761280d565b979650505050505050565b606083156128a05782516128995773ffffffffffffffffffffffffffffffffffffffff85163b612899576040517f08c379a000000000000000000000000000000000000000000000000000000000815260206004820152601d60248201527f416464726573733a2063616c6c20746f206e6f6e2d636f6e747261637400000060448201526064016106d0565b50816126ec565b6126ec83838151156128b55781518083602001fd5b806040517f08c379a00000000000000000000000000000000000000000000000000000000081526004016106d091906129ae565b8280546128f590612afc565b90600052602060002090601f016020900481019282612917576000855561295d565b82601f1061293057805160ff191683800117855561295d565b8280016001018555821561295d579182015b8281111561295d578251825591602001919060010190612942565b5061296992915061296d565b5090565b5b80821115612969576000815560010161296e565b60005b8381101561299d578181015183820152602001612985565b8381111561151c5750506000910152565b60208152600082518060208401526129cd816040850160208701612982565b601f017fffffffffffffffffffffffffffffffffffffffffffffffffffffffffffffffe0169190910160400192915050565b803573ffffffffffffffffffffffffffffffffffffffff81168114612a2357600080fd5b919050565b60008060408385031215612a3b57600080fd5b612a44836129ff565b946020939093013593505050565b600080600060608486031215612a6757600080fd5b612a70846129ff565b9250612a7e602085016129ff565b9150604084013590509250925092565b600060208284031215612aa057600080fd5b5035919050565b600060208284031215612ab957600080fd5b612ac2826129ff565b9392505050565b60008060408385031215612adc57600080fd5b612ae5836129ff565b9150612af3602084016129ff565b90509250929050565b600181811c90821680612b1057607f821691505b60208210811415612b4a577f4e487b7100000000000000000000000000000000000000000000000000000000600052602260045260246000fd5b50919050565b7f4e487b7100000000000000000000000000000000000000000000000000000000600052603260045260246000fd5b7f4e487b7100000000000000000000000000000000000000000000000000000000600052601160045260246000fd5b60008219821115612bc157612bc1612b7f565b500190565b600060208284031215612bd857600080fd5b815160ff81168114612ac257600080fd5b7f4e487b7100000000000000000000000000000000000000000000000000000000600052604160045260246000fd5b600060208284031215612c2a57600080fd5b815167ffffffffffffffff80821115612c4257600080fd5b818401915084601f830112612c5657600080fd5b815181811115612c6857612c68612be9565b604051601f82017fffffffffffffffffffffffffffffffffffffffffffffffffffffffffffffffe0908116603f01168101908382118183101715612cae57612cae612be9565b81604052828152876020848701011115612cc757600080fd5b612802836020830160208801612982565b7f4465666572726564200000000000000000000000000000000000000000000000815260008251612d10816009850160208701612982565b9190910160090192915050565b7f442d000000000000000000000000000000000000000000000000000000000000815260008251612d55816002850160208701612982565b9190910160020192915050565b600081612d7157612d71612b7f565b507fffffffffffffffffffffffffffffffffffffffffffffffffffffffffffffffff0190565b60007fffffffffffffffffffffffffffffffffffffffffffffffffffffffffffffffff821415612dc957612dc9612b7f565b5060010190565b600060208284031215612de257600080fd5b81518015158114612ac257600080fd5b60008251612e04818460208701612982565b919091019291505056fea2646970667358221220a63331d62f9485b0ab38e6388f4c26b8d4bdc043697c8841a8abceb63484ae2564736f6c63430008090033",
  "devdoc": {
    "kind": "dev",
    "methods": {
      "allowance(address,address)": {
        "details": "See {IERC20-allowance}."
      },
      "approve(address,uint256)": {
        "details": "See {IERC20-approve}. NOTE: If `amount` is the maximum `uint256`, the allowance is not updated on `transferFrom`. This is semantically equivalent to an infinite approval. Requirements: - `spender` cannot be the zero address."
      },
      "balanceOf(address)": {
        "details": "See {IERC20-balanceOf}."
      },
      "decimals()": {
        "details": "Returns the number of decimals used to get its user representation. For example, if `decimals` equals `2`, a balance of `505` tokens should be displayed to a user as `5.05` (`505 / 10 ** 2`). Tokens usually opt for a value of 18, imitating the relationship between Ether and Wei. This is the value {ERC20} uses, unless this function is overridden; NOTE: This information is only used for _display_ purposes: it in no way affects any of the arithmetic of the contract, including {IERC20-balanceOf} and {IERC20-transfer}."
      },
      "decreaseAllowance(address,uint256)": {
        "details": "Atomically decreases the allowance granted to `spender` by the caller. This is an alternative to {approve} that can be used as a mitigation for problems described in {IERC20-approve}. Emits an {Approval} event indicating the updated allowance. Requirements: - `spender` cannot be the zero address. - `spender` must have allowance for the caller of at least `subtractedValue`."
      },
      "deposit(uint256)": {
        "details": " , token  approve  .",
        "params": {
          "amount": "  "
        }
      },
      "increaseAllowance(address,uint256)": {
        "details": "Atomically increases the allowance granted to `spender` by the caller. This is an alternative to {approve} that can be used as a mitigation for problems described in {IERC20-approve}. Emits an {Approval} event indicating the updated allowance. Requirements: - `spender` cannot be the zero address."
      },
      "name()": {
        "details": "Returns the name of the token."
      },
      "owner()": {
        "details": "Returns the address of the current owner."
      },
      "paused()": {
        "details": "Returns true if the contract is paused, and false otherwise."
      },
      "renounceOwnership()": {
        "details": "Leaves the contract without owner. It will not be possible to call `onlyOwner` functions anymore. Can only be called by the current owner. NOTE: Renouncing ownership will leave the contract without an owner, thereby removing any functionality that is only available to the owner."
      },
      "requestWithdrawal(uint256)": {
        "details": " , deferredToken .",
        "params": {
          "amount": "  "
        }
      },
      "setCooldownPeriod(uint256)": {
        "params": {
          "period": "  (unit: seconds)"
        }
      },
      "symbol()": {
        "details": "Returns the symbol of the token, usually a shorter version of the name."
      },
      "totalSupply()": {
        "details": "See {IERC20-totalSupply}."
      },
      "transfer(address,uint256)": {
        "details": "See {IERC20-transfer}. Requirements: - `to` cannot be the zero address. - the caller must have a balance of at least `amount`."
      },
      "transferFrom(address,address,uint256)": {
        "details": "See {IERC20-transferFrom}. Emits an {Approval} event indicating the updated allowance. This is not required by the EIP. See the note at the beginning of {ERC20}. NOTE: Does not update the allowance if the current allowance is the maximum `uint256`. Requirements: - `from` and `to` cannot be the zero address. - `from` must have a balance of at least `amount`. - the caller must have allowance for ``from``'s tokens of at least `amount`."
      },
      "transferOwnership(address)": {
        "details": "Transfers ownership of the contract to a new account (`newOwner`). Can only be called by the current owner."
      },
      "withdraw(uint256)": {
        "details": "cooldownPeriod    .",
        "params": {
          "amount": "  ",
          "requestId": "  "
        }
      },
      "withdrawalRequestByIndex(address,uint256)": {
        "params": {
          "index": "0 ~ withdrawalRequestCounts(owner) - 1 ",
          "owner": "   "
        }
      }
    },
    "version": 1
  },
  "userdoc": {
    "kind": "user",
    "methods": {
      "cooldownPeriod()": {
        "notice": "    "
      },
      "deposit(uint256)": {
        "notice": " , deferredToken "
      },
      "pause()": {
        "notice": "deposit, requestWithdrawal, withdraw, transfer  (only Owner)"
      },
      "requestWithdrawal(uint256)": {
        "notice": "   . cooldown   withdraw    ."
      },
      "setCooldownPeriod(uint256)": {
        "notice": "  "
      },
      "token()": {
        "notice": " /  "
      },
      "unpause()": {
        "notice": "  (only Owner)"
      },
      "withdraw(uint256)": {
        "notice": "   "
      },
      "withdrawalRequestByIndex(address,uint256)": {
        "notice": "     ,"
      },
      "withdrawalRequestCounts(address)": {
        "notice": "    "
      },
      "withdrawalRequests(uint256)": {
        "notice": "  "
      }
    },
    "notice": "DeferredToken   ,       Wrapped  ",
    "version": 1
  },
  "storageLayout": {
    "storage": [
      {
        "astId": 138,
        "contract": "contracts/DeferredToken.sol:DeferredToken",
        "label": "_initialized",
        "offset": 0,
        "slot": "0",
        "type": "t_uint8"
      },
      {
        "astId": 141,
        "contract": "contracts/DeferredToken.sol:DeferredToken",
        "label": "_initializing",
        "offset": 1,
        "slot": "0",
        "type": "t_bool"
      },
      {
        "astId": 1527,
        "contract": "contracts/DeferredToken.sol:DeferredToken",
        "label": "__gap",
        "offset": 0,
        "slot": "1",
        "type": "t_array(t_uint256)50_storage"
      },
      {
        "astId": 446,
        "contract": "contracts/DeferredToken.sol:DeferredToken",
        "label": "_balances",
        "offset": 0,
        "slot": "51",
        "type": "t_mapping(t_address,t_uint256)"
      },
      {
        "astId": 452,
        "contract": "contracts/DeferredToken.sol:DeferredToken",
        "label": "_allowances",
        "offset": 0,
        "slot": "52",
        "type": "t_mapping(t_address,t_mapping(t_address,t_uint256))"
      },
      {
        "astId": 454,
        "contract": "contracts/DeferredToken.sol:DeferredToken",
        "label": "_totalSupply",
        "offset": 0,
        "slot": "53",
        "type": "t_uint256"
      },
      {
        "astId": 456,
        "contract": "contracts/DeferredToken.sol:DeferredToken",
        "label": "_name",
        "offset": 0,
        "slot": "54",
        "type": "t_string_storage"
      },
      {
        "astId": 458,
        "contract": "contracts/DeferredToken.sol:DeferredToken",
        "label": "_symbol",
        "offset": 0,
        "slot": "55",
        "type": "t_string_storage"
      },
      {
        "astId": 1038,
        "contract": "contracts/DeferredToken.sol:DeferredToken",
        "label": "__gap",
        "offset": 0,
        "slot": "56",
        "type": "t_array(t_uint256)45_storage"
      },
      {
        "astId": 321,
        "contract": "contracts/DeferredToken.sol:DeferredToken",
        "label": "_paused",
        "offset": 0,
        "slot": "101",
        "type": "t_bool"
      },
      {
        "astId": 426,
        "contract": "contracts/DeferredToken.sol:DeferredToken",
        "label": "__gap",
        "offset": 0,
        "slot": "102",
        "type": "t_array(t_uint256)49_storage"
      },
      {
        "astId": 1176,
        "contract": "contracts/DeferredToken.sol:DeferredToken",
        "label": "__gap",
        "offset": 0,
        "slot": "151",
        "type": "t_array(t_uint256)50_storage"
      },
      {
        "astId": 10,
        "contract": "contracts/DeferredToken.sol:DeferredToken",
        "label": "_owner",
        "offset": 0,
        "slot": "201",
        "type": "t_address"
      },
      {
        "astId": 130,
        "contract": "contracts/DeferredToken.sol:DeferredToken",
        "label": "__gap",
        "offset": 0,
        "slot": "202",
        "type": "t_array(t_uint256)49_storage"
      },
      {
        "astId": 3773,
        "contract": "contracts/DeferredToken.sol:DeferredToken",
        "label": "token",
        "offset": 0,
        "slot": "251",
        "type": "t_address"
      },
      {
        "astId": 3775,
        "contract": "contracts/DeferredToken.sol:DeferredToken",
        "label": "cooldownPeriod",
        "offset": 0,
        "slot": "252",
        "type": "t_uint256"
      },
      {
        "astId": 3779,
        "contract": "contracts/DeferredToken.sol:DeferredToken",
        "label": "_withdrawalRequests",
        "offset": 0,
        "slot": "253",
        "type": "t_array(t_struct(WithdrawalRequest)4285_storage)dyn_storage"
      },
      {
        "astId": 3783,
        "contract": "contracts/DeferredToken.sol:DeferredToken",
        "label": "_withdrawalRequestCounts",
        "offset": 0,
        "slot": "254",
        "type": "t_mapping(t_address,t_uint256)"
      },
      {
        "astId": 3787,
        "contract": "contracts/DeferredToken.sol:DeferredToken",
        "label": "requestOwnerOf",
        "offset": 0,
        "slot": "255",
        "type": "t_mapping(t_uint256,t_address)"
      },
      {
        "astId": 3793,
        "contract": "contracts/DeferredToken.sol:DeferredToken",
        "label": "_ownedRequests",
        "offset": 0,
        "slot": "256",
        "type": "t_mapping(t_address,t_mapping(t_uint256,t_uint256))"
      },
      {
        "astId": 3797,
        "contract": "contracts/DeferredToken.sol:DeferredToken",
        "label": "_ownedRequestsIndex",
        "offset": 0,
        "slot": "257",
        "type": "t_mapping(t_uint256,t_uint256)"
      }
    ],
    "types": {
      "t_address": {
        "encoding": "inplace",
        "label": "address",
        "numberOfBytes": "20"
      },
      "t_array(t_struct(WithdrawalRequest)4285_storage)dyn_storage": {
        "base": "t_struct(WithdrawalRequest)4285_storage",
        "encoding": "dynamic_array",
        "label": "struct IDeferredTokenStruct.WithdrawalRequest[]",
        "numberOfBytes": "32"
      },
      "t_array(t_uint256)45_storage": {
        "base": "t_uint256",
        "encoding": "inplace",
        "label": "uint256[45]",
        "numberOfBytes": "1440"
      },
      "t_array(t_uint256)49_storage": {
        "base": "t_uint256",
        "encoding": "inplace",
        "label": "uint256[49]",
        "numberOfBytes": "1568"
      },
      "t_array(t_uint256)50_storage": {
        "base": "t_uint256",
        "encoding": "inplace",
        "label": "uint256[50]",
        "numberOfBytes": "1600"
      },
      "t_bool": {
        "encoding": "inplace",
        "label": "bool",
        "numberOfBytes": "1"
      },
      "t_mapping(t_address,t_mapping(t_address,t_uint256))": {
        "encoding": "mapping",
        "key": "t_address",
        "label": "mapping(address => mapping(address => uint256))",
        "numberOfBytes": "32",
        "value": "t_mapping(t_address,t_uint256)"
      },
      "t_mapping(t_address,t_mapping(t_uint256,t_uint256))": {
        "encoding": "mapping",
        "key": "t_address",
        "label": "mapping(address => mapping(uint256 => uint256))",
        "numberOfBytes": "32",
        "value": "t_mapping(t_uint256,t_uint256)"
      },
      "t_mapping(t_address,t_uint256)": {
        "encoding": "mapping",
        "key": "t_address",
        "label": "mapping(address => uint256)",
        "numberOfBytes": "32",
        "value": "t_uint256"
      },
      "t_mapping(t_uint256,t_address)": {
        "encoding": "mapping",
        "key": "t_uint256",
        "label": "mapping(uint256 => address)",
        "numberOfBytes": "32",
        "value": "t_address"
      },
      "t_mapping(t_uint256,t_uint256)": {
        "encoding": "mapping",
        "key": "t_uint256",
        "label": "mapping(uint256 => uint256)",
        "numberOfBytes": "32",
        "value": "t_uint256"
      },
      "t_string_storage": {
        "encoding": "bytes",
        "label": "string",
        "numberOfBytes": "32"
      },
      "t_struct(WithdrawalRequest)4285_storage": {
        "encoding": "inplace",
        "label": "struct IDeferredTokenStruct.WithdrawalRequest",
        "members": [
          {
            "astId": 4278,
            "contract": "contracts/DeferredToken.sol:DeferredToken",
            "label": "id",
            "offset": 0,
            "slot": "0",
            "type": "t_uint256"
          },
          {
            "astId": 4280,
            "contract": "contracts/DeferredToken.sol:DeferredToken",
            "label": "amount",
            "offset": 0,
            "slot": "1",
            "type": "t_uint256"
          },
          {
            "astId": 4282,
            "contract": "contracts/DeferredToken.sol:DeferredToken",
            "label": "requestTs",
            "offset": 0,
            "slot": "2",
            "type": "t_uint256"
          },
          {
            "astId": 4284,
            "contract": "contracts/DeferredToken.sol:DeferredToken",
            "label": "isClaimed",
            "offset": 0,
            "slot": "3",
            "type": "t_bool"
          }
        ],
        "numberOfBytes": "128"
      },
      "t_uint256": {
        "encoding": "inplace",
        "label": "uint256",
        "numberOfBytes": "32"
      },
      "t_uint8": {
        "encoding": "inplace",
        "label": "uint8",
        "numberOfBytes": "1"
      }
    }
  }
}